:100000000C9458000C9477000C9477000C947700B3
:100010000C9477000C9477000C9477000C94770084
:100020000C9477000C9477000C9477000C94770074
:100030000C9477000C94F0000C9477000C947700EB
:100040000C9477000C9477000C9477000C94770054
:100050000C9477000C9477000C9477000C94770044
:100060000C9477000C9477000C9477000C94770034
:100070000C9477000C9477000C9477000C94770024
:100080000C9477000C9477000C947700A801AF01D2
:10009000E2010D0214021B0222026802910209030E
:1000A000F4020903F702FE0200030903090309032E
:1000B00011241FBECFEFD0E4DEBFCDBF11E0A0E022
:1000C000B1E0E0EFF6E000E00BBF02C007900D9258
:1000D000A431B107D9F721E0A4E1B1E001C01D923C
:1000E000AC31B207E1F70E9419030C9476030C942B
:1000F0000000CF93DF9300D01F92CDB7DEB7898386
:100100007B836A8389818A3031F48A819B81BC0137
:100110008DE00E94790080EC90E0FC018081882FC6
:1001200090E080729927892BB1F386EC90E02981C9
:10013000FC01208380E090E00F900F900F90DF9102
:10014000CF910895CF93DF93CDB7DEB781E890E0EC
:100150002BE0FC01208388E890E02DE730E0FC01F3
:10016000318320838FE690E022E0FC01208384E845
:1001700090E0FC011182108280910E0190910F019C
:10018000A0911001B0911101809315019093160177
:10019000A0931701B09318018FE590E02FE530E0B0
:1001A000F90120812068FC0120830000DF91CF91BC
:1001B0000895CF93DF93CDB7DEB781E890E0FC01DF
:1001C00010820000DF91CF910895CF93DF93CDB7D8
:1001D000DEB781E0809314010000DF91CF91089594
:1001E0001F920F9200905F000F92112400905B000D
:1001F0000F922F933F934F935F936F937F938F93C0
:100200009F93AF93BF93EF93FF93CF93DF93CDB7BC
:10021000DEB78091150190911601A0911701B09160
:1002200018010197A109B109809315019093160156
:10023000A0931701B09318018091150190911601B8
:10024000A0911701B0911801892B8A2B8B2B91F467
:100250000E94E50080910E0190910F01A091100184
:10026000B09111018093150190931601A09317018D
:10027000B09318010000DF91CF91FF91EF91BF91F2
:10028000AF919F918F917F916F915F914F913F912E
:100290002F910F9000925B000F9000925F000F90E3
:1002A0001F901895CF93DF9300D000D0CDB7DEB765
:1002B00069837A838B839C8389819A81AB81BC819A
:1002C00080930E0190930F01A0931001B093110140
:1002D00080910E0190910F01A0911001B091110138
:1002E0008093150190931601A0931701B093180104
:1002F00000000F900F900F900F90DF91CF91089515
:10030000CF93DF9300D0CDB7DEB71A82198285E292
:1003100090E0FC018081898380E290E0FC01808193
:1003200080958A8380911A0190911B01CC01A0E0F5
:10033000B0E040E050E028E030E0841B950B281747
:10034000390708F434C18A5B9F4FFC010C945903B0
:1003500081E090E090931B0180931A0130C11092CC
:1003600019018A81882F90E083709927019739F4C9
:1003700083E090E090931B0180931A0120C18A8151
:10038000882F90E083709927039739F484E090E0F8
:1003900090931B0180931A0112C18A81882F90E0EB
:1003A00083709927029739F485E090E090931B01C0
:1003B00080931A0104C182E090E090931B01809326
:1003C0001A01FDC0109219018A81882F90E0837074
:1003D0009927019731F483E090E090931B0180937B
:1003E0001A018A81882F90E083709927039731F44E
:1003F00084E090E090931B0180931A018A81882FFA
:1004000090E083709927029709F0D6C085E090E0CC
:1004100090931B0180931A01CFC086E090E09093E7
:100420001B0180931A01CBC087E090E090931B01E1
:1004300080931A01C4C088E090E090931B018093E0
:100440001A01BDC08A81882F90E083709927039795
:1004500031F484E090E090931B0180931A018A812B
:10046000882F90E083709927029731F485E090E01F
:1004700090931B0180931A018A81882F90E08370EA
:100480009927892B31F482E090E090931B018093AF
:100490001A0180911901282F30E080911201482F14
:1004A00050E088EE93E0BA010E944503CB01281783
:1004B000390744F083E090E090931B0180931A0188
:1004C00010921901809119018F5F8093190177C0F3
:1004D0008A81882F90E083709927019731F483E017
:1004E00090E090931B0180931A018A81882F90E0FD
:1004F00083709927029731F485E090E090931B0177
:1005000080931A018A81882F90E083709927892B24
:1005100009F054C082E090E090931B0180931A018F
:100520004DC08A81882F90E083709927039731F41A
:1005300084E090E090931B0180931A018A81882FB8
:1005400090E083709927019731F483E090E09093D5
:100550001B0180931A018A81882F90E0837099276C
:10056000892B31F482E090E090931B0180931A0173
:1005700080911901282F30E080911201482F50E01E
:1005800088EE93E0BA010E944503CB012817390792
:1005900044F085E090E090931B0180931A01109243
:1005A0001901809119018F5F8093190108C0109281
:1005B0001B0110921A0103C0000001C000008091CD
:1005C0001A0190911B01CC01A0E0B0E040E050E0A6
:1005D00028E030E0841B950B28173907C0F0815BB9
:1005E0009F4FFC010C94590387E0898317C08981D0
:1005F000893088F489818F5F89830DC019820EC08C
:100600008981882351F089818150898306C0000047
:1006100005C0000003C0000001C0000085E290E0BA
:100620002981FC01208300000F900F90DF91CF9172
:100630000895CF93DF93CDB7DEB781E290E0FC0160
:10064000108282E290E02FEFFC01208384E290E0B0
:100650002FEFFC01208385E290E0FC01108264E62C
:1006600070E080E090E00E9452010E94A20010928F
:100670001B0110921A010E94800100008091140158
:100680008823E1F310921401F6CF97FB072E16F49E
:10069000009407D077FD09D00E94620307FC05D0C3
:1006A0003EF4909581959F4F0895709561957F4F89
:1006B0000895EE0FFF1F0024001C0BBE0790F6915B
:1006C000E02D0994AA1BBB1B51E107C0AA1FBB1F49
:1006D000A617B70710F0A61BB70B881F991F5A95CE
:1006E000A9F780959095BC01CD010895F894FFCFAE
:1006F000000000020000000079000000000001007E
:040700000000640091
:00000001FF
